{
  "_format": "hh-sol-artifact-1",
  "contractName": "Crowdsale",
  "sourceName": "contracts/Crowdsale.sol",
  "abi": [
    {
      "inputs": [
        {
          "internalType": "uint256",
          "name": "_rate",
          "type": "uint256"
        },
        {
          "internalType": "address",
          "name": "_wallet",
          "type": "address"
        },
        {
          "internalType": "contract IERC20",
          "name": "_saleToken",
          "type": "address"
        },
        {
          "internalType": "contract IERC20",
          "name": "_usdtToken",
          "type": "address"
        }
      ],
      "stateMutability": "nonpayable",
      "type": "constructor"
    },
    {
      "inputs": [
        {
          "internalType": "address",
          "name": "owner",
          "type": "address"
        }
      ],
      "name": "OwnableInvalidOwner",
      "type": "error"
    },
    {
      "inputs": [
        {
          "internalType": "address",
          "name": "account",
          "type": "address"
        }
      ],
      "name": "OwnableUnauthorizedAccount",
      "type": "error"
    },
    {
      "anonymous": false,
      "inputs": [
        {
          "indexed": true,
          "internalType": "address",
          "name": "previousOwner",
          "type": "address"
        },
        {
          "indexed": true,
          "internalType": "address",
          "name": "newOwner",
          "type": "address"
        }
      ],
      "name": "OwnershipTransferred",
      "type": "event"
    },
    {
      "inputs": [
        {
          "internalType": "uint256",
          "name": "usdtAmount",
          "type": "uint256"
        }
      ],
      "name": "buyTokens",
      "outputs": [],
      "stateMutability": "nonpayable",
      "type": "function"
    },
    {
      "inputs": [],
      "name": "owner",
      "outputs": [
        {
          "internalType": "address",
          "name": "",
          "type": "address"
        }
      ],
      "stateMutability": "view",
      "type": "function"
    },
    {
      "inputs": [],
      "name": "rate",
      "outputs": [
        {
          "internalType": "uint256",
          "name": "",
          "type": "uint256"
        }
      ],
      "stateMutability": "view",
      "type": "function"
    },
    {
      "inputs": [],
      "name": "renounceOwnership",
      "outputs": [],
      "stateMutability": "nonpayable",
      "type": "function"
    },
    {
      "inputs": [],
      "name": "saleToken",
      "outputs": [
        {
          "internalType": "contract IERC20",
          "name": "",
          "type": "address"
        }
      ],
      "stateMutability": "view",
      "type": "function"
    },
    {
      "inputs": [
        {
          "internalType": "address",
          "name": "newOwner",
          "type": "address"
        }
      ],
      "name": "transferOwnership",
      "outputs": [],
      "stateMutability": "nonpayable",
      "type": "function"
    },
    {
      "inputs": [],
      "name": "usdtToken",
      "outputs": [
        {
          "internalType": "contract IERC20",
          "name": "",
          "type": "address"
        }
      ],
      "stateMutability": "view",
      "type": "function"
    },
    {
      "inputs": [],
      "name": "wallet",
      "outputs": [
        {
          "internalType": "address",
          "name": "",
          "type": "address"
        }
      ],
      "stateMutability": "view",
      "type": "function"
    },
    {
      "inputs": [
        {
          "internalType": "uint256",
          "name": "amount",
          "type": "uint256"
        }
      ],
      "name": "withdrawTokens",
      "outputs": [],
      "stateMutability": "nonpayable",
      "type": "function"
    }
  ],
  "bytecode": "0x608060405234801561001057600080fd5b506040516112f73803806112f7833981810160405281019061003291906104b3565b33600073ffffffffffffffffffffffffffffffffffffffff168173ffffffffffffffffffffffffffffffffffffffff16036100a55760006040517f1e4fbdf700000000000000000000000000000000000000000000000000000000815260040161009c9190610529565b60405180910390fd5b6100b48161031860201b60201c565b50600084116100f8576040517f08c379a00000000000000000000000000000000000000000000000000000000081526004016100ef906105a1565b60405180910390fd5b600073ffffffffffffffffffffffffffffffffffffffff168373ffffffffffffffffffffffffffffffffffffffff1603610167576040517f08c379a000000000000000000000000000000000000000000000000000000000815260040161015e9061060d565b60405180910390fd5b600073ffffffffffffffffffffffffffffffffffffffff168273ffffffffffffffffffffffffffffffffffffffff16036101d6576040517f08c379a00000000000000000000000000000000000000000000000000000000081526004016101cd90610679565b60405180910390fd5b600073ffffffffffffffffffffffffffffffffffffffff168173ffffffffffffffffffffffffffffffffffffffff1603610245576040517f08c379a000000000000000000000000000000000000000000000000000000000815260040161023c906106e5565b60405180910390fd5b8360038190555082600460006101000a81548173ffffffffffffffffffffffffffffffffffffffff021916908373ffffffffffffffffffffffffffffffffffffffff16021790555081600160006101000a81548173ffffffffffffffffffffffffffffffffffffffff021916908373ffffffffffffffffffffffffffffffffffffffff16021790555080600260006101000a81548173ffffffffffffffffffffffffffffffffffffffff021916908373ffffffffffffffffffffffffffffffffffffffff16021790555050505050610705565b60008060009054906101000a900473ffffffffffffffffffffffffffffffffffffffff169050816000806101000a81548173ffffffffffffffffffffffffffffffffffffffff021916908373ffffffffffffffffffffffffffffffffffffffff1602179055508173ffffffffffffffffffffffffffffffffffffffff168173ffffffffffffffffffffffffffffffffffffffff167f8be0079c531659141344cd1fd0a4f28419497f9722a3daafe3b4186f6b6457e060405160405180910390a35050565b600080fd5b6000819050919050565b6103f4816103e1565b81146103ff57600080fd5b50565b600081519050610411816103eb565b92915050565b600073ffffffffffffffffffffffffffffffffffffffff82169050919050565b600061044282610417565b9050919050565b61045281610437565b811461045d57600080fd5b50565b60008151905061046f81610449565b92915050565b600061048082610437565b9050919050565b61049081610475565b811461049b57600080fd5b50565b6000815190506104ad81610487565b92915050565b600080600080608085870312156104cd576104cc6103dc565b5b60006104db87828801610402565b94505060206104ec87828801610460565b93505060406104fd8782880161049e565b925050606061050e8782880161049e565b91505092959194509250565b61052381610437565b82525050565b600060208201905061053e600083018461051a565b92915050565b600082825260208201905092915050565b7f52617465206d75737420626520706f7369746976650000000000000000000000600082015250565b600061058b601583610544565b915061059682610555565b602082019050919050565b600060208201905081810360008301526105ba8161057e565b9050919050565b7f496e76616c69642077616c6c6574206164647265737300000000000000000000600082015250565b60006105f7601683610544565b9150610602826105c1565b602082019050919050565b60006020820190508181036000830152610626816105ea565b9050919050565b7f496e76616c696420746f6b656e20616464726573730000000000000000000000600082015250565b6000610663601583610544565b915061066e8261062d565b602082019050919050565b6000602082019050818103600083015261069281610656565b9050919050565b7f496e76616c6964207061796d656e7420746f6b656e2061646472657373000000600082015250565b60006106cf601d83610544565b91506106da82610699565b602082019050919050565b600060208201905081810360008301526106fe816106c2565b9050919050565b610be3806107146000396000f3fe608060405234801561001057600080fd5b50600436106100935760003560e01c8063715018a611610066578063715018a61461010c5780638da5cb5b14610116578063a98ad46c14610134578063e985e36714610152578063f2fde38b1461017057610093565b80632c4e722e14610098578063315a095d146100b65780633610724e146100d2578063521eb273146100ee575b600080fd5b6100a061018c565b6040516100ad919061077e565b60405180910390f35b6100d060048036038101906100cb91906107ca565b610192565b005b6100ec60048036038101906100e791906107ca565b610245565b005b6100f66104dd565b6040516101039190610838565b60405180910390f35b610114610503565b005b61011e610517565b60405161012b9190610838565b60405180910390f35b61013c610540565b60405161014991906108b2565b60405180910390f35b61015a610566565b60405161016791906108b2565b60405180910390f35b61018a600480360381019061018591906108f9565b61058c565b005b60035481565b61019a610612565b600160009054906101000a900473ffffffffffffffffffffffffffffffffffffffff1673ffffffffffffffffffffffffffffffffffffffff1663a9059cbb6101e0610517565b836040518363ffffffff1660e01b81526004016101fe929190610926565b6020604051808303816000875af115801561021d573d6000803e3d6000fd5b505050506040513d601f19601f820116820180604052508101906102419190610987565b5050565b60006003548261025591906109e3565b9050600160009054906101000a900473ffffffffffffffffffffffffffffffffffffffff1673ffffffffffffffffffffffffffffffffffffffff166370a08231306040518263ffffffff1660e01b81526004016102b29190610838565b602060405180830381865afa1580156102cf573d6000803e3d6000fd5b505050506040513d601f19601f820116820180604052508101906102f39190610a3a565b811115610335576040517f08c379a000000000000000000000000000000000000000000000000000000000815260040161032c90610aea565b60405180910390fd5b600260009054906101000a900473ffffffffffffffffffffffffffffffffffffffff1673ffffffffffffffffffffffffffffffffffffffff166323b872dd33600460009054906101000a900473ffffffffffffffffffffffffffffffffffffffff16856040518463ffffffff1660e01b81526004016103b693929190610b0a565b6020604051808303816000875af11580156103d5573d6000803e3d6000fd5b505050506040513d601f19601f820116820180604052508101906103f99190610987565b610438576040517f08c379a000000000000000000000000000000000000000000000000000000000815260040161042f90610b8d565b60405180910390fd5b600160009054906101000a900473ffffffffffffffffffffffffffffffffffffffff1673ffffffffffffffffffffffffffffffffffffffff1663a9059cbb33836040518363ffffffff1660e01b8152600401610495929190610926565b6020604051808303816000875af11580156104b4573d6000803e3d6000fd5b505050506040513d601f19601f820116820180604052508101906104d89190610987565b505050565b600460009054906101000a900473ffffffffffffffffffffffffffffffffffffffff1681565b61050b610612565b6105156000610699565b565b60008060009054906101000a900473ffffffffffffffffffffffffffffffffffffffff16905090565b600260009054906101000a900473ffffffffffffffffffffffffffffffffffffffff1681565b600160009054906101000a900473ffffffffffffffffffffffffffffffffffffffff1681565b610594610612565b600073ffffffffffffffffffffffffffffffffffffffff168173ffffffffffffffffffffffffffffffffffffffff16036106065760006040517f1e4fbdf70000000000000000000000000000000000000000000000000000000081526004016105fd9190610838565b60405180910390fd5b61060f81610699565b50565b61061a61075d565b73ffffffffffffffffffffffffffffffffffffffff16610638610517565b73ffffffffffffffffffffffffffffffffffffffff16146106975761065b61075d565b6040517f118cdaa700000000000000000000000000000000000000000000000000000000815260040161068e9190610838565b60405180910390fd5b565b60008060009054906101000a900473ffffffffffffffffffffffffffffffffffffffff169050816000806101000a81548173ffffffffffffffffffffffffffffffffffffffff021916908373ffffffffffffffffffffffffffffffffffffffff1602179055508173ffffffffffffffffffffffffffffffffffffffff168173ffffffffffffffffffffffffffffffffffffffff167f8be0079c531659141344cd1fd0a4f28419497f9722a3daafe3b4186f6b6457e060405160405180910390a35050565b600033905090565b6000819050919050565b61077881610765565b82525050565b6000602082019050610793600083018461076f565b92915050565b600080fd5b6107a781610765565b81146107b257600080fd5b50565b6000813590506107c48161079e565b92915050565b6000602082840312156107e0576107df610799565b5b60006107ee848285016107b5565b91505092915050565b600073ffffffffffffffffffffffffffffffffffffffff82169050919050565b6000610822826107f7565b9050919050565b61083281610817565b82525050565b600060208201905061084d6000830184610829565b92915050565b6000819050919050565b600061087861087361086e846107f7565b610853565b6107f7565b9050919050565b600061088a8261085d565b9050919050565b600061089c8261087f565b9050919050565b6108ac81610891565b82525050565b60006020820190506108c760008301846108a3565b92915050565b6108d681610817565b81146108e157600080fd5b50565b6000813590506108f3816108cd565b92915050565b60006020828403121561090f5761090e610799565b5b600061091d848285016108e4565b91505092915050565b600060408201905061093b6000830185610829565b610948602083018461076f565b9392505050565b60008115159050919050565b6109648161094f565b811461096f57600080fd5b50565b6000815190506109818161095b565b92915050565b60006020828403121561099d5761099c610799565b5b60006109ab84828501610972565b91505092915050565b7f4e487b7100000000000000000000000000000000000000000000000000000000600052601160045260246000fd5b60006109ee82610765565b91506109f983610765565b9250828202610a0781610765565b91508282048414831517610a1e57610a1d6109b4565b5b5092915050565b600081519050610a348161079e565b92915050565b600060208284031215610a5057610a4f610799565b5b6000610a5e84828501610a25565b91505092915050565b600082825260208201905092915050565b7f4e6f7420656e6f75676820746f6b656e7320696e2074686520636f6e7472616360008201527f7400000000000000000000000000000000000000000000000000000000000000602082015250565b6000610ad4602183610a67565b9150610adf82610a78565b604082019050919050565b60006020820190508181036000830152610b0381610ac7565b9050919050565b6000606082019050610b1f6000830186610829565b610b2c6020830185610829565b610b39604083018461076f565b949350505050565b7f55534454207472616e73666572206661696c6564000000000000000000000000600082015250565b6000610b77601483610a67565b9150610b8282610b41565b602082019050919050565b60006020820190508181036000830152610ba681610b6a565b905091905056fea264697066735822122026624a2fb26a8a1e2afe6acf06f5f6637e36303904d84f629a81870e2ebf67e764736f6c634300081b0033",
  "linkReferences": {},
  "deployedLinkReferences": {}
}